:020000040000FA
:0400000015EF00F008
:060008000C82C8EF00F0BD
:100018000C80E0CF01F0F29EF28E01C0E0FF0C9060
:100028001000D4EF00F0000E936E000E8A6E9288D6
:10003800010EC26E100EC16E000EC06EA00E9A6E3A
:10004800010E996E000EB86E000EC46E000EC36EDF
:10005800D08EF28EF28CC294C296C282C2B237EFB0
:1000680000F039EF00F032EF00F0000E0A6E000EDB
:10007800096EC4CF09F00A6A09C002F00AC003F089
:10008800000E056E330E046E8EEC00F002500B6EFF
:100098000B50D8A452EF00F054EF00F058EF00F0E6
:1000A800000E8A6E2FEF00F0020E0B605EEF00F07C
:1000B80060EF00F064EF00F0010E8A6E2FEF00F0A1
:1000C800030E0B606AEF00F06CEF00F070EF00F0C9
:1000D800030E8A6E2FEF00F0040E0B6076EF00F02F
:1000E80078EF00F07CEF00F0070E8A6E2FEF00F03B
:1000F800050E0B6082EF00F084EF00F088EF00F04F
:100108000F0E8A6E2FEF00F01F0E8A6E2FEF00F091
:1001180015EF00F0000E076E000E066E0450051075
:10012800D8B499EF00F09BEF00F0C3EF00F0010E98
:10013800086EA3EF00F0D89004360536082A05AEFD
:10014800A8EF00F0AAEF00F09FEF00F0D890063675
:1001580007360450025C05500358D8A0B6EF00F0EB
:10016800B8EF00F0BDEF00F00450025E0550035AEE
:100178000680D89005320432082EAAEF00F006C097
:1001880002F007C003F01200F29E9EAACEEF00F024
:10019800D0EF00F0D1EF00F09E9AF28E0C92110091
:1001A8000B6A0A6A096A0C900C92000117EF00F0BA
:020000040020DA
:08000000FFFFFFFFFFFFFFFF00
:020000040030CA
:0E000000FFC80D3E3C9D80FF0FC00FE00F407B
:00000001FF
